:0200000480007A
:10000000E08F100000000000000000000000000071
:1000100000000000000000000000000000000000E0
:1000200000000000000000000000000000000000D0
:1000300000000000000000000000000000000000C0
:1000400000000000000000000000000000000000B0
:08200000481F0000800042248B
:10200800EBCD40801A97303AE06B1B00EA1B00B713
:10201800FE7C0C00F01F001B31081AD8300830195C
:10202800308A300BFE7C0C00F01F00172FFD3008A3
:102038003019301A300BFE7C0C00F01F0014300BE6
:10204800FE7C0C00F01F0012FE7C0C00F01F00113B
:1020580030081AD830081AD830083009300A300B3E
:10206800FE7C0C00F01F000C2FED301CF01F000B45
:10207800302BFE7C0C00F01F000AE3CD80800000AE
:10208800800038BC800036EE800037928000381C13
:1020980080003852800035E480003080800038703D
:1020A8002A2A2A2048442063686970206669726D6C
:1020B80077617265207570677261646520766572F4
:1020C80020322E37202A2A2A0A0000004D656D6F1B
:1020D800727920636865636B2E2E2E205B20204F5B
:1020E8004B20205D0A00000057726974696E6720F2
:1020F8006669726D77617265206461746120746FBE
:1021080020666C6173680A004D656D6F7279206393
:102118006865636B2E2E2E205B4641494C5D0A0094
:10212800566572696679696E67206669726D77614E
:10213800726520646174610A000000005665726966
:102148006679206661696C656420617420627974BF
:10215800652025642C2030782530327820213D20D8
:102168003078253032780A004669726D7761726579
:10217800207375636365737366756C6C792073740B
:102188006F72656420696E20666C617368210A004D
:10219800EBCD40801A97333CF01F000A334CF01FF8
:1021A8000009335CF01F0007333CF01F0007334C75
:1021B800F01F0005335CF01F0004E3CD80800000B1
:1021C8008000324C8000329CEBCD40801A97203D35
:1021D800F01F00714F1CF01F0072F01F0072F01FFB
:1021E8000072333CF01F0071F01F007118981099AD
:1021F8003018F0091800C0B14EECF01F00694EEC21
:10220800F01F00673008EF48FFF4C378334CF01F25
:102218000067333CF01F00694E9CF01F00613008D6
:10222800CB684E887009EEF8FFF4F2080108E04820
:102238000100E0880007E0680100EF48FFF8C09857
:102248004E087009EEF8FFF4F2080108EF48FFF8AD
:10225800EEF9FFF44DC8F2080008EEFAFFF8109BFB
:10226800EEFCFFF4F01F0059EEF9FFF4EEF8FFF86A
:10227800F2080008EF48FFF44D287008EEF9FFF463
:102288001039CD034D2CF01F00463008EF48FFF4FD
:10229800C6E84CC87009EEF8FFF4F2080108E048F7
:1022A8000100E0880007E0680100EF48FFF8C098E7
:1022B8004C487009EEF8FFF4F2080108EF48FFF8FF
:1022C800EEFAFFF84C3BEEFCFFF4F01F0043300839
:1022D800EF48FFFCC3E8EEF9FFFC4BE8F208000802
:1022E8001189EEFAFFF4EEF8FFFC100A4B68F408C7
:1022F80000081188F0091800C270334CF01F002B39
:10230800333CF01F002EEEF9FFF4EEF8FFFC100945
:102318004AD8F20800081188109AEEF9FFFC4AD84A
:10232800F208000811881099EEFBFFF4EEF8FFFCA4
:10233800F60800081ADA1AD91AD84A8CF01F0018B9
:102348002FDD3008C248EEF8FFFC2FF8EF48FFFCFD
:10235800EEF9FFFCEEF8FFF81039CBE3EEF9FFF4E5
:10236800EEF8FFF8F2080008EF48FFF44958700843
:10237800EEF9FFF41039C8E3333CF01F0010335C6A
:10238800F01F000A496CF01F00063008109C2FDD72
:10239800E3CD808080002B08800020A880002A7070
:1023A80080002198800023E88000330480002C20DE
:1023B800800020D4800020F08000329C8000211012
:1023C8008002A04C800046008000248880002128DC
:1023D80000000008800024F880002144800021705B
:1023E800EBCD40801A97204D49E8EECA0010109BAB
:1023F800F6E80000F4E90000F6E80008F4E900084F
:10240800304B499CF01F0019EEC80010109BFE7C51
:102418002800F01F00173009300A300BFE7C280016
:10242800F01F0014FE7C2800F01F0013302CF01F52
:102438000013204D1A98109AEECB0010F6E8000011
:10244800F4E90000F6E80008F4E90008E06CF98017
:10245800EA1C0337F01F000A2FCD2FCDE3CD808073
:102468008002A0508002A060800030C88000395AE5
:10247800800039EE80003D048000329C80002B7083
:10248800EBCD40801A97205DEF4CFFF4EF4BFFF047
:10249800EF4AFFECEEF8FFF4A988EF48FFF8EEFCEE
:1024A800FFF8F01F00113008EF48FFFCC108EEF9F3
:1024B800FFF0EEF8FFFCF20800081188109CF01FEE
:1024C800000BEEF8FFFC2FF8EF48FFFCEEF9FFFCDD
:1024D800EEF8FFEC1039CEC3F01F00052FBDE3CD99
:1024E8008080000080002E648000300480002F204F
:1024F800EBCD40C01A97205DEF4CFFF4EF4BFFF097
:10250800EF4AFFECEEF8FFF4A988EF48FFF8EEFC7D
:10251800FFF8F01F00113008EF48FFFCC108EEF982
:10252800FFF0EEF8FFFCF2080006F01F000C189808
:10253800AC88EEF8FFFC2FF8EF48FFFCEEF9FFFC43
:10254800EEF8FFEC1039CEC3F01F00052FBDE3CD28
:1025580080C0000080002D4C80002F7480002E3831
:10256800286E756C6C290000EBCD40801A97202DE1
:10257800EF4CFFFCEF4BFFF8EEF8FFFC5808C110DA
:10258800EEF8FFFC7009EEF8FFF85C58B288EEF838
:10259800FFFC7008F0C9FFFFEEF8FFFC9109C05876
:1025A800EEFCFFF8F01F00032FEDE3CD8080000064
:1025B800800041D8EBCD40E81A97204DEF4CFFFC46
:1025C800EF4BFFF8EF4AFFF4EF49FFF03006320512
:1025D800EEF8FFF45808E08A001E300EEEF3FFF81C
:1025E800C0382FFE2FF307885808CFC1EEF8FFF444
:1025F800103EC0553008EF48FFF4C068EEF8FFF40D
:102608001C18EF48FFF4EEF8FFF0E2180002C020B3
:102618003305EEF8FFF0F1D8C001C221C0C80A9B0B
:10262800EEFCFFFCF01F001D2FF6EEF8FFF420185B
:10263800EF48FFF4EEF8FFF45808FE99FFF2C118CE
:10264800EEF8FFF81188109BEEFCFFFCF01F00135A
:102658002FF6EEF8FFF82FF8EF48FFF8C028D70359
:10266800EEF8FFF811885808CEC1C0C80A9BEEFCE6
:10267800FFFCF01F000A2FF6EEF8FFF42018EF48D1
:10268800FFF4EEF8FFF45808FE99FFF20C98109C3E
:102698002FCDE3CD80E8000080002570EBCD40EE23
:1026A8001A97208DEEC3FFE4EF4CFFF0EF4BFFECE1
:1026B800EF4AFFE8EF49FFE4EF48FFE0300130025E
:1026C800EEFEFFECEEF8FFEC5808C1313308EF6876
:1026D800FFF43008EF68FFF5EEC8000C6609EEFA63
:1026E800FFE0109BEEFCFFF0F01F002E1898C55875
:1026F800EEF8FFE45808C0E0EEF8FFE858A8C0A1DB
:10270800EEF8FFEC5808C0643011EEF8FFEC5C38C6
:10271800109EEEC8000CF0C6FFF53008AC88C188E2
:10272800EEF8FFE8FC080D08129810955895E08A15
:102738000005661823A810052016F1D5C0082D0835
:102748005C58AC88EEF8FFE8FC080D08109E580E9F
:10275800CE815801C180EEF8FFE05808C110660824
:10276800E2180002C0D032DBEEFCFFF0F01F000ED2
:102778002FF2EEF8FFE02018EF48FFE0C0482016DF
:1027880032D8AC886609EEFAFFE00C9BEEFCFFF04D
:10279800F01F000418980408109C2F8DE3CD80EEDC
:1027A800800025BC80002570EBCD40E81A97204DAD
:1027B800EF4CFFF8EF4BFFF4EF4AFFF03006C37918
:1027C800EEF8FFF411893258F0091800E081012071
:1027D800EEF8FFF42FF8EF48FFF430050A9EEEF804
:1027E800FFF411885808E080012AEEF8FFF41189F7
:1027F8003258F0091800E080010AEEF8FFF4118958
:1028080032D8F0091800C0F1EEF8FFF42FF8EF48BD
:10281800FFF43015C098EEF8FFF42FF8EF48FFF4F6
:10282800A1B5C028D703EEF8FFF411893308F009E1
:102838001800CF20C1081C98A3681C08A178109E16
:10284800EEF8FFF411882308100EEEF8FFF42FF8C5
:10285800EF48FFF4EEF8FFF4118932F8F009180098
:10286800E088000AEEF8FFF411893398F00918009F
:10287800FE98FFE3EEF8FFF411893738F0091800E5
:10288800C181EEF8FFF0F0C9FFFCEF49FFF07008D6
:1028980010935803C0300698C0284F080A991C9A0C
:1028A800109BEEFCFFF8F01F006E18981006CBA8DE
:1028B800EEF8FFF411893648F0091800C161EEF806
:1028C800FFF0F0C9FFFCEF49FFF0700B36181AD87B
:1028D8001AD51C98301930AAEEFCFFF8F01F0061D9
:1028E8002FED18981006C9E8EEF8FFF4118937089B
:1028F800F0091800C1713085EEF8FFF0F0C9FFFC4F
:10290800EF49FFF0700B36181AD81AD51C98300901
:10291800310AEEFCFFF8F01F00532FED189810064F
:10292800C818EEF8FFF411893788F0091800C1615A
:10293800EEF8FFF0F0C9FFFCEF49FFF0700B361816
:102948001AD81AD51C983009310AEEFCFFF8F01F86
:1029580000452FED18981006C658EEF8FFF41189B7
:102968003588F0091800C161EEF8FFF0F0C9FFFCE6
:10297800EF49FFF0700B34181AD81AD51C98300993
:10298800310AEEFCFFF8F01F00372FED18981006FB
:10299800C498EEF8FFF411893758F0091800C1619E
:1029A800EEF8FFF0F0C9FFFCEF49FFF0700B3618A6
:1029B8001AD81AD51C98300930AAEEFCFFF8F01F77
:1029C80000292FED18981006C2D8EEF8FFF41189E7
:1029D8003638F0091800C251EEF8FFF0F0C9FFFCD4
:1029E800EF49FFF070085C58EF68FFFC3008EF68AB
:1029F800FFFDEEC800040A991C9A109BEEFCFFF834
:102A0800F01F001718981006C0D8D703EEF8FFF487
:102A18001188109BEEFCFFF8F01F00132FF6C0285A
:102A2800D703EEF8FFF42FF8EF48FFF4EEF8FFF4C1
:102A380011885808FE91FEC6C028D703EEF8FFF8A3
:102A48005808C060EEF8FFF870093008B2880C9892
:102A5800109C2FCDE3CD80E880002568800025BC40
:102A6800800026A480002570EBCD40801A97202D89
:102A7800EEC8FFF8EF4CFFF82008EF48FFFCEEF82F
:102A8800FFFC109AEEFBFFF8300CF01F00041898BA
:102A9800109C2FEDE3CD8080800027B0EBCD4080E7
:102AA8001A974848E3B80001D553E3CD8080000069
:102AB80080004400EBCD40801A97201DFE6810006E
:102AC80071083009EF49FFFCEF48FFFCEEF8FFFC06
:102AD8003019F1D9D202EF48FFFCFE681000EEF978
:102AE800FFFCF14900402FFDE3CD8080EBCD408015
:102AF8001A97F01F0003D503E3CD8080800033F8D8
:102B0800EBCD40801A97F01F0009F01F0009F01F55
:102B18000009F01F0009E06CF980EA1C0337F01F78
:102B28000007E3CD8080000080002AA480002ABC32
:102B38008000200880002AF480004158556E65788E
:102B4800706563746564206465766963652064658F
:102B58006E736974792076616C75653A20256420F6
:102B68002830782578290A00EBCD40C01A97201D17
:102B7800EEC6FFF4EF4CFFFC3028AC88C118EEFA23
:102B8800FFFC0C9BFE7C2800F01F000D18985808CD
:102B9800C0303008C0F80D882FF85C58AC880D8913
:102BA8003028F0091800FE98FFEC48693008B28810
:102BB8003018109C2FFDE3CD80C0000080003B84BE
:102BC80000000108EBCD40801A97202D189916981F
:102BD800EF69FFFCEF68FFF8EF39FFF83008F009FC
:102BE8001800C0B0EF38FFFC2FE85C58109BFE7C43
:102BF8002800F01F0008C0A8EF38FFFC2FE85C5839
:102C0800109BFE7C2800F01F00042FEDE3CD808090
:102C180080003A8280003B1AEBCD40801A97201D35
:102C28003008EF58FFFC3008EF68FFFFC3E8EF38C3
:102C3800FFFF301B109CF01F0023E06B00D7FE7CC9
:102C48002800F01F0021E06B00FFFE7C2800F01F29
:102C5800001EEEC80004109BFE7C2800F01F001B1D
:102C6800EF38FFFF300B109CF01F0016EF08FFFC39
:102C78005C78E218003C5938E0890013EF08FFFC43
:102C8800F3D8C010EF08FFFC5C78E218003C1AD9B2
:102C98001AD848FCF01F000F2FED3008C0D8EF38C5
:102CA800FFFF2FF8EF68FFFFEF39FFFF3008F0094B
:102CB8001800CBE03018109C2FFDE3CD8080000079
:102CC80080002BCC80003D1E80003D7680002B4488
:102CD80080002A70EBCD40801A97201D4968700843
:102CE800B5885C58301B109CF01F0014E06B00D7AF
:102CF800FE7C2800F01F0012E06B00FFFE7C28001D
:102D0800F01F000FEEC80002109BFE7C2800F01F89
:102D1800000DEF08FFFE5C78E2180080CEE04868FE
:102D28007008B5885C58300B109CF01F00042FFD0C
:102D3800E3CD80800000010C80002BCC80003D1E7C
:102D480080003D76EBCD40801A97202DEF4CFFF8A0
:102D5800EEF8FFF8F00915084B1891094B1811887F
:102D68005808C030F01F00304AE93008B2884AC815
:102D78007008B5885C58301B109CF01F002CE06B65
:102D880000D2FE7C2800F01F002A4A587008E41878
:102D9800000FE018FF00A988F00915094A08700813
:102DA800F1D8C008F3E81008EF48FFFCEEC80004AB
:102DB8002FF81188109BFE7C2800F01F001DEEC81C
:102DC80000042FE81188109BFE7C2800F01F0018D3
:102DD800EEC800042FD81188109BFE7C2800F01F35
:102DE8000014E06B00FFFE7C2800F01F0011E06B70
:102DF80000FFFE7C2800F01F000EE06B00FFFE7C49
:102E08002800F01F000BE06B00FFFE7C2800F01F7D
:102E180000083018109C2FEDE3CD80800000010CD5
:102E28000000010880002CDC80002BCC80003D1EB7
:102E3800EBCD40801A9748787008B5885C58300BFD
:102E4800109CF01F000548593008B288E3CD8080F7
:102E58000000010C80002BCC00000108EBCD408065
:102E68001A97202DEF4CFFF8EEF8FFF8F009150837
:102E78004A5891094A5811885808C030F01F002450
:102E88004A293008B2884A087008B5885C58301B4F
:102E9800109CF01F0020E06B0082FE7C2800F01FD1
:102EA800001E49987008E418000FE018FF00A98870
:102EB800F009150949487008F1D8C008F3E8100866
:102EC800EF48FFFCEEC800042FF81188109BFE7C29
:102ED8002800F01F0011EEC800042FE81188109B8D
:102EE800FE7C2800F01F000CEEC800042FD81188C3
:102EF800109BFE7C2800F01F00083018109C2FED56
:102F0800E3CD80800000010C0000010880002CDC6B
:102F180080002BCC80003D1EEBCD40801A97C0C8A6
:102F2800300BFE7C2800F01F000E48E87008F0C93E
:102F3800FFFF48C8910948B87008F1D8C008CF11F8
:102F480048887008B5885C58300B109CF01F000644
:102F580048693018B288E3CD8080000080003D1EAB
:102F68000000010C80002BCC00000108EBCD408054
:102F78001A97201D49C811885808C0A049A93008C7
:102F8800B28849A87008A988109CF01F0019E06B46
:102F980000FFFE7C2800F01F0017EEC80002109BFF
:102FA800FE7C2800F01F001449087008F0C9FFFFD4
:102FB80048E8910948D87008F1D8C008C0C148B895
:102FC8007008B5885C58300B109CF01F000C4869DD
:102FD8003018B288EF08FFFE5C58109C2FFDE3CD37
:102FE80080800000000001080000010C80002D4CCA
:102FF80080003D1E80003D7680002BCCEBCD4080CC
:103008001A97201D1898EF68FFFC4978118858080E
:10301800C07049687008A988109CF01F0015EF3827
:10302800FFFC109BFE7C2800F01F001248F8700877
:10303800F0C9FFFF48D8910948C87008F1D8C008FE
:10304800C0C148A87008B5885C58300B109CF01FA8
:10305800000A48593018B2883018109C2FFDE3CD6B
:1030680080800000000001080000010C80002E6430
:1030780080003D1E80002BCCEBCD40801A97202D80
:10308800EF4CFFF8FE68140070083009EF49FFFCA8
:10309800EF48FFFCEEF8FFF85C58F1D8C001F3D810
:1030A800C008EEF8FFFCF1D9D0C1EF48FFFCFE687C
:1030B8001400EEF9FFFC91092FEDE3CD8080D703D2
:1030C800EBCD40801A97204DEF4CFFF4EF4BFFF00B
:1030D8003008EF48FFF83008EF48FFFCC1D8EEF899
:1030E800FFF411981099EEF8FFF41188129B109CC8
:1030F800F01F00101898EEF9FFF8F3E81008EF48F1
:10310800FFF8EEF8FFF42FE8EF48FFF4EEF8FFFCC5
:103118002FF8EF48FFFCEEF9FFFCEEF8FFF010394E
:10312800CDF3EEF8FFF8109C2FCDE3CD80800000A2
:103138008000313CEBCD40801A97203DEF4CFFF8E2
:10314800EF4BFFF4EEF8FFF8A598A968E028F00027
:10315800EF48FFFCEEF8FFF45818C1E0C0635828A8
:10316800C3205838C470C5D8EEF8FFF8F1D8C005A8
:103178003019F20809481099EEF8FFFC9169EEF849
:10318800FFF8F1D8C0053019F20809481099EEF88F
:10319800FFFC91A9C488EEF8FFF8F1D8C0053019F2
:1031A800F20809481099EEF8FFFC9159EEF8FFF87B
:1031B800F1D8C0053019F20809481099EEF8FFFC5B
:1031C80091A9C318EEF8FFF8F1D8C0053019F20834
:1031D80009481099EEF8FFFC9169EEF8FFF8F1D86C
:1031E800C0053019F20809481099EEF8FFFC9199CA
:1031F800C1A8EEF8FFF8F1D8C0053019F20809485F
:103208001099EEF8FFFC9159EEF8FFF8F1D8C005D7
:103218003019F20809481099EEF8FFFC9199C03866
:103228003018C0D8EEF8FFF8F1D8C0053019F20808
:1032380009481099EEF8FFFC91293008109C2FDD01
:10324800E3CD8080EBCD40801A97202DEF4CFFF81E
:10325800EEF8FFF8A598A968E028F000EF48FFFC11
:10326800EEF8FFF8F1D8C0053019F20809481099AE
:10327800EEF8FFFCF1490048EEF8FFF8F1D8C00578
:103288003019F20809481099EEF8FFFC91192FED52
:10329800E3CD8080EBCD40801A97202DEF4CFFF8CE
:1032A800EEF8FFF8A598A968E028F000EF48FFFCC1
:1032B800EEF8FFF8F1D8C0053019F208094810995E
:1032C800EEF8FFFCF1490054EEF8FFF8F1D8C0051C
:1032D8003019F20809481099EEF8FFFCF14900444A
:1032E800EEF8FFF8F1D8C0053019F208094810992E
:1032F800EEF8FFFC91192FEDE3CD8080EBCD4080F7
:103308001A97202DEF4CFFF8EEF8FFF8A598A9685A
:10331800E028F000EF48FFFCEEF8FFF8F1D8C00510
:103328003019F20809481099EEF8FFFCF1490058E5
:10333800EEF8FFF8F1D8C0053019F20809481099DD
:10334800EEF8FFFCF1490044EEF8FFF8F1D8C005AB
:103358003019F20809481099EEF8FFFC91192FED81
:10336800E3CD8080EBCD40801A97C008EBCD40803C
:103378001A97203DEF4CFFF4FE780800EEF9FFF4B1
:10338800F20911032809F0090328EF48FFF8FE782D
:103398000800EEF9FFF82C09F0090328EF48FFFCB4
:1033A800EEF8FFFC5808C130EEF9FFF848B8A179EB
:1033B8002FF9F0090329EEF8FFFCF0081200F008D5
:1033C800111FA368F20800087008C0283008109C74
:1033D8002FDDE3CD808000008002A068EBCD408027
:1033E8001A974838E3B80001E3CD80808000440094
:1033F800EBCD40801A97202DF01F001E3008EF48B3
:10340800FFF8C2F83008EF48FFFCC148EEF9FFF8B2
:103418004998A1792FF9F0090329EEF8FFFCA36870
:10342800F208000849599109EEF8FFFC2FF8EF4817
:10343800FFFCEEF9FFF84908F0090339EEF8FFFC44
:103448001039FE9BFFE5FE780800EEF9FFF848CA40
:10345800740AF009092AEEF8FFF82FF8EF48FFF888
:10346800EEF8FFF85938FE98FFCF2FEDE3CD8080B6
:10347800800033E48002A0688000336C8000453C03
:10348800EBCD40801A97203DEF4CFFF8EF4BFFF44F
:10349800EEF8FFF870A83009EF49FFFCEF48FFFC91
:1034A800EEF8FFF45C58F1D8C003F3D8C008EEF882
:1034B800FFFCF1D9D003EF48FFFCEEF9FFFCEEF872
:1034C800FFF891A92FDDE3CD8080D703EBCD4080B5
:1034D8001A97202DEF4CFFFCEF4BFFF8EEF8FFF8A2
:1034E800EC58BB9FE088001AEEF8FFF8E069C6BF09
:1034F800EA19002D1238E088000FEEF8FFF8E069AD
:1035080011FFEA19007A1238E08B00043068C028ED
:103518003078C0283058C0283048109BEEFCFFFC9B
:10352800F01F00032FEDE3CD808000008000348879
:10353800EBCD40801A97202DEF4CFFFCEF4BFFF8A6
:10354800EEFBFFF8EEFCFFFCF01F0005EEFCFFFCB5
:10355800F01F00042FEDE3CD808000008000356C63
:10356800800035C6EBCD40801A97203DEF4CFFF820
:10357800EF4BFFF4EEF8FFF870A83009EF49FFFCB5
:10358800EF48FFFCEEF8FFF45C58F1D8C003F3D81D
:10359800C008EEF8FFFCF1D9D103EF48FFFCEEF9C3
:1035A800FFFCEEF8FFF891A9EEF8FFF87008109903
:1035B800A3A9EEF8FFF891092FDDE3CD8080EBCDCC
:1035C80040801A97201DEF4CFFFCEEF8FFFC715865
:1035D800E2180080CFB02FFDE3CD8080EBCD408096
:1035E8001A97206DEECEFFF8EF4CFFF8EF4BFFF483
:1035F800EF4AFFF0EF49FFECEF48FFE83008EF48EB
:10360800FFFC7C185C58F1D8C003F3D8C008EEF86A
:10361800FFFCF1D9D003EF48FFFC7C085C58F1D8D7
:10362800C001F3D8C008EEF8FFFCF1D9D0E1EF48AB
:10363800FFFC7C185C58F1D8C003F3D8C008EEF83A
:10364800FFFCF1D9D103EF48FFFC7C085C58F1D8A6
:10365800C001F3D8C008EEF8FFFCF1D9D1E1EF487A
:10366800FFFCEEF8FFF05C58F1D8C003F3D8C008AF
:10367800EEF8FFFCF1D9D203EF48FFFCEEF8FFF4B7
:103688005C58F1D8C001F3D8C008EEF8FFFCF1D9B6
:10369800D2E1EF48FFFCEEF8FFE85C58F1D8C00330
:1036A800F3D8C008EEF8FFFCF1D9D303EF48FFFCCC
:1036B800EEF8FFEC5C58F1D8C001F3D8C008EEF87A
:1036C800FFFCF1D9D3E1EF48FFFCEEF9FFFCEEF87F
:1036D800FFF89119EEF8FFF87158E2180020CFB002
:1036E8002FADE3CD8080EBCD40801A97206DEECED4
:1036F800FFF8EF4CFFF8EF4BFFF4EF4AFFF0EF490C
:10370800FFECEF48FFE83008EF48FFFCEEF8FFE871
:103718005C58F1D8C001F3D8C008EEF8FFFCF1D925
:10372800D021EF48FFFCEEF8FFEC5C58F1D8C0045C
:10373800F3D8C008EEF8FFFCF1D9D104EF48FFFC3C
:10374800EEF8FFF05C58F1D8C004F3D8C008EEF8E2
:10375800FFFCF1D9D204EF48FFFC7C085C58F1D893
:10376800C006F3D8C008EEF8FFFCF1D9D306EF483D
:10377800FFFCEEF9FFF4EEFAFFFCEEF8FFF82F89F4
:10378800F009092A2FADE3CD8080EBCD40801A9750
:10379800206DEF4CFFF8EF4BFFF4EF4AFFF0EF49D5
:1037A800FFECEF48FFE8EEF9FFF4EEF8FFF82F8999
:1037B800F00903283009EF49FFFCEF48FFFCEEF859
:1037C800FFEC5C58A178F3D8C008EEF8FFF05C581D
:1037D800F3E81008F3D8C008EEF8FFE85C58A368CF
:1037E8005C58F3E810085C58F1D8C003F3D8C00857
:1037F800EEF8FFFCF1D9D043EF48FFFCEEF9FFF4F7
:10380800EEFAFFFCEEF8FFF82F89F009092A2FAD30
:10381800E3CD8080EBCD40801A97202DEF4CFFFC44
:10382800EF4BFFF8EEF9FFF8EEFAFFF8EEF8FFFCC1
:103838002F8AF00A0328109AA1AAEEF8FFFC2F8914
:10384800F009092A2FEDE3CD8080EBCD40801A974F
:10385800201DEF4CFFFCEEF8FFFC7158F1D8C001B9
:10386800CFB02FFDE3CD8080EBCD40801A97203D6F
:10387800EF4CFFF8EF4BFFF4EEF8FFF87008300953
:10388800EF49FFFCEF48FFFCEEF8FFF45C58F1D875
:10389800C002F3D8C008EEF8FFFCF1D9D002EF4817
:1038A800FFFCEEF9FFFCEEF8FFF891092FDDE3CD00
:1038B8008080D703EBCD40801A97203DEF4CFFFC6A
:1038C800EF4BFFF8EF4AFFF4EEFBFFF8EEFCFFFCCE
:1038D800F01F0008EEFBFFF4EEFCFFFCF01F0006F3
:1038E800301BEEFCFFFCF01F00052FDDE3CD8080D0
:1038F800800034D48000353880003870EBCD4080AB
:103908001A97203DEF4CFFF8EF4BFFF4EEF8FFF865
:103918007018F0091601EEF8FFF4F2080008EEF945
:10392800FFF87219F0090D08EF48FFFCEEF8FFFCEC
:103938005808E08A0008EEF8FFFCE04800FFE08A3B
:1039480000043FF8C038EEF8FFFC109C2FDDE3CDF3
:103958008080EBCD40801A97203DEF4CFFF8EF4B6D
:10396800FFF4EEF8FFF4F139000D3018F0091800F3
:10397800E08800043028C348EEF8FFF8E0690080CA
:103988009109EEF8FFF87018EF48FFFCEEF8FFFC1D
:103998003019F1D9D001EF48FFFCEEF8FFF4F13807
:1039A800000DF1D8C001F3D8C008EEF8FFFCF1D93A
:1039B800D081EF48FFFCEEF8FFFC3009F1D9D0E1E7
:1039C800EF48FFFCEEF8FFFC30F9F1D9D204EF48DC
:1039D800FFFCEEF9FFFCEEF8FFF891193008109C97
:1039E8002FDDE3CD8080EBCD40801A97205DEF4C32
:1039F800FFF812981699EF69FFF41499EF69FFF030
:103A0800EF68FFECEF39FFF43018F0091800E08B8D
:103A18000009EF39FFF03018F0091800E0880004B9
:103A28003028C288EEF8FFF87018EF48FFFCEF382E
:103A3800FFF4F1D8C001F3D8C008EEF8FFFCF1D9C3
:103A4800D021EF48FFFCEF38FFF0F1D8C001F3D8E0
:103A5800C008EEF8FFFCF1D9D041EF48FFFCEF3881
:103A6800FFECEF68FFFCEEF9FFFCEEF8FFF89119A8
:103A78003008109C2FBDE3CD8080EBCD40801A9795
:103A8800202DEF4CFFFC1698EF68FFF8EEF8FFFCCE
:103A980070181099EA19000FEEF8FFFC9119EEF86A
:103AA800FFFC7018E2180004C190EF39FFF830E805
:103AB800F0091800E08800043028C288EEF8FFFCFE
:103AC8007019EF38FFF8B168EA18FFF0E818FFFF3F
:103AD8001069EEF8FFFC9119C188EF39FFF830380A
:103AE800F0091800E08800043028C108EEF8FFFC4F
:103AF8007019EF38FFF82F08301AF40809485CD815
:103B08001069EEF8FFFC91193008109C2FEDE3CDF9
:103B18008080EBCD40801A97203DEF4CFFF8169837
:103B2800EF68FFF4E0682710EF48FFFCC0F8EEF8F4
:103B3800FFFC58085F085C58EEF9FFFC2019EF49B4
:103B4800FFFC5808C0303018C168EEF8FFF870481C
:103B5800E2180200CED0EEF8FFF870181099EA19B2
:103B6800000FEEF8FFF89119EEF8FFF8FC190100C4
:103B780091093008109C2FDDE3CD8080EBCD40808B
:103B88001A97205DEF4CFFF4EF4BFFF0EF4AFFEC84
:103B9800EEF8FFF0F139000C3038F0091800E08B2E
:103BA800001DEEF8FFF0F139000B3018F00918008D
:103BB800E08B0014EEF8FFF0F13900083078F009D6
:103BC8001800E088000BEEF8FFF0F1390008310822
:103BD800F0091800E08800043028C8B8EEFBFFECB4
:103BE800EEFCFFF0F01F00451898EF48FFFCEEF8D8
:103BF800FFFC5808C0343028C7C83008EF48FFF821
:103C0800EEF8FFF0F138000CA1985C58F1D8C0012B
:103C1800F3D8C008EEF8FFF8F1D9D001EF48FFF863
:103C2800EEF8FFF0F138000CF1D8C0015F08F3D8C6
:103C3800C008EEF8FFF8F1D9D021EF48FFF8EEF808
:103C4800FFF0F138000BF1D8C001F3D8C008EEF846
:103C5800FFF8F1D9D061EF48FFF8EEF8FFF0F1383E
:103C6800000820885C58F1D8C004F3D8C008EEF8E2
:103C7800FFF8F1D9D084EF48FFF8EEF8FFFC5C5864
:103C8800EF68FFFAEEF8FFF0F1380009EF68FFF986
:103C9800EEF8FFF0F138000AEF68FFF8EEF8FFF0F1
:103CA80011885818C110E08900055808C070C1E88B
:103CB8005828C1005838C140C198EEF9FFF8EEF80D
:103CC800FFF491C9C158EEF9FFF8EEF8FFF491D965
:103CD800C0F8EEF9FFF8EEF8FFF491E9C098EEF9B4
:103CE800FFF8EEF8FFF491F9C0383028C028300802
:103CF800109C2FBDE3CD808080003904EBCD40803F
:103D08001A97201DEF4CFFFCEEF8FFFC30199109C3
:103D18002FFDE3CD8080EBCD40801A97203DEF4CFE
:103D2800FFF81698EF58FFF4E0682710EF48FFFCFB
:103D3800C0F8EEF8FFFC58085F085C58EEF9FFFC85
:103D48002019EF49FFFC5808C0303018C0D8EEF8E9
:103D5800FFF87048E2180002CED0EF19FFF4EEF831
:103D6800FFF891393008109C2FDDE3CD8080EBCD32
:103D780040801A97203DEF4CFFF8EF4BFFF4E068C6
:103D88002710EF48FFFCC0F8EEF8FFFC58085F0862
:103D98005C58EEF9FFFC2019EF49FFFC5808C030C9
:103DA8003018C118EEF8FFF87048E2180201E04830
:103DB8000201CEB1EEF8FFF870285C88EEF9FFF446
:103DC800B2083008109C2FDDE3CD8080EBCD408019
:103DD8001A97207DEF4CFFECEF4BFFE8EF4AFFE42A
:103DE800EEF8FFE8F0091504EEF8FFE41039E08B6F
:103DF80000043108C0283088EF48FFF0EEF8FFE4EF
:103E0800F0091503EEFAFFF0EEF8FFE8F4080248AF
:103E1800A198F2080008EEFAFFF0EEF9FFE8F409BD
:103E28000249F0090D08EF48FFF4EEF8FFF4A398F3
:103E3800EF48FFF8EEF8FFF4F1D8C003EF48FFFCB5
:103E4800EEF8FFF85808C070EEF8FFF8E048FFFFFA
:103E5800E08800043018C208EEF8FFEC70181099DA
:103E6800E419FFF7E019FECFEEF8FFF05908C0405B
:103E7800E8680000C02830081049EEF8FFEC9119F6
:103E8800EEF8FFFCF0091510EEF8FFF81049EEF80F
:103E9800FFEC91893008109C2F9DE3CD8080EBCDFD
:103EA80040801A97202DEF4CFFF8E1B80000E61883
:103EB80000015F08EF68FFFFEF39FFFF3008F009E6
:103EC8001800C020D303EEF8FFF83FF99139EEF857
:103ED800FFF87058EF39FFFF3008F0091800C020CC
:103EE800D503EEF8FFF830099119EEF8FFF830091C
:103EF8009199EEF8FFF8300991A9EEF8FFF8EA6910
:103F0800610C91092FEDE3CD8080D703EBCD408084
:103F18001A97203DEF4CFFFCEF4BFFF8EF4AFFF4F8
:103F2800EEFCFFFCF01F0054EEF8FFF85808C390B1
:103F3800EEF8FFF811C93048F0091800E08800329F
:103F4800EEF8FFF811C93098F0091800E08B002A44
:103F5800EEF8FFF811D93078F0091800E08B00224C
:103F6800EEF8FFF89039E0680101F0091900E08BDC
:103F78000019EEF8FFF8F13900083038F009180098
:103F8800E08B0010EEF9FFF4EEF8FFF87008129AD3
:103F9800109BEEFCFFFCF01F003918985818C03130
:103FA8003018C648EEF8FFF811C93098F009180023
:103FB800C0A1EEF8FFFC70181099B1B9EEF8FFFC3B
:103FC8009119C0D8EEF8FFFC7019EEF8FFF811C887
:103FD8002058A7681049EEF8FFFC9119EEF8FFFC8D
:103FE8007019EEF8FFF811D8F00A1509EEF8FFF885
:103FF800F1380008AF68F5E810081049EEF8FFFC42
:104008009119EEF8FFF890393028F0091900E08886
:104018000014EEF8FFFC70181099ADB9EEF8FFFC2B
:104028009119EEF8FFF890385C7820281099EEF88E
:10403800FFFC91A9C0D8EEF8FFFC7019EEF8FFF864
:1040480090385C78AD681049EEF8FFFC9119EEF8ED
:10405800FFFC70181099E019FFF0EEF8FFFC9119B9
:10406800EEF8FFFC350991093008109C2FDDE3CDEF
:104078008080000080003EA680003DD4EBCD4080CB
:104088001A97203DEF4CFFF8EF4BFFF4EEF8FFF8DE
:10409800EF48FFFCEEF8FFFC7058E21800025F18CA
:1040A8005808C0A0EEF8FFF4F3D8C009EEF8FFF8FE
:1040B80091793008C0283028109C2FDDE3CD80800E
:1040C800EBCD40801A97203DEF4CFFF8EF4BFFF403
:1040D800E0682710EF48FFFCEEF8FFF458A8C1B1DC
:1040E800EEF8FFFC58085F085C58EEF9FFFC201951
:1040F800EF49FFFC5808C0303FF8C25830DBEEFCEF
:10410800FFF8F01F001318985808CEB1E068271080
:10411800EF48FFFCEEF8FFFC58085F085C58EEF922
:10412800FFFC2019EF49FFFC5808C0303FF8C0B821
:10413800EEFBFFF4EEFCFFF8F01F00051898580896
:10414800CEA13008109C2FDDE3CD80808000408414
:10415800EBCD40801A97201DEF4CFFFCEEFBFFFCD7
:10416800E06CE100F01F00032FFDE3CD808000002C
:104178008000417CEBCD40801A97205DEF4CFFF02A
:10418800EF4BFFECEEF8FFF0EF48FFF43088EF68F4
:10419800FFF83048EF68FFF93008EF58FFFA3008A9
:1041A800EF68FFFC302B488CF01F0008EEC8000CAD
:1041B800EEFAFFEC109BFE7C1800F01F00052FBDE7
:1041C800E3CD80808002A108800030C880003F14C1
:1041D800EBCD40801A97201DEF4CFFFCEEFBFFFC57
:1041E800FE7C1800F01F00032FFDE3CD8080000047
:1041F800800041FCEBCD40801A97202DEF4CFFFC4E
:10420800EF4BFFF8EEFBFFF8EEFCFFFCF01F00039E
:104218002FEDE3CD80800000800040C848CD48D015
:10422800E3B00001D55348C048C10230C06248C25B
:10423800A505A1240230CFD348A048B10230C062FE
:1042480030023003A1220230CFE3488F0001000082
:104258008000440000000008000000088002A1104F
:0C42680000000008000001E8800021D0E8
:10440000C0080000C0080000C0080000C00800008C
:10441000C0080000C0080000C0080000C00800007C
:10442000C0080000C0080000C0080000C00800006C
:10443000C0080000C0080000C0080000C00800005C
:10444000C0080000C00800000000000000000000DC
:10445000C008000000000000000000000000000094
:10446000C008000000000000000000000000000084
:10447000C008000000000000000000000000000074
:10448000000000000000000000000000000000002C
:10449000000000000000000000000000000000001C
:1044A000000000000000000000000000000000000C
:1044B00000000000000000000000000000000000FC
:1044C00000000000000000000000000000000000EC
:1044D00000000000000000000000000000000000DC
:1044E00000000000000000000000000000000000CC
:1044F00000000000000000000000000000000000BC
:10450000C0080000300CF01F0012580CF80F1710F4
:10451000D603301CF01F000E580CF80F1710D603EE
:10452000302CF01F000B580CF80F1710D603303C3E
:10453000F01F0007580CF80F1710D60300000104F5
:104540004000011280000120C000012E8000337461
:10455000000000000000000000000000000000005B
:10456000000000000000000000000000000000004B
:10457000000000000000000000000000000000003B
:10458000000000000000000000000000000000002B
:10459000000000000000000000000000000000001B
:1045A000000000000000000000000000000000000B
:1045B00000000000000000000000000000000000FB
:1045C00000000000000000000000000000000000EB
:1045D00000000000000000000000000000000000DB
:1045E00000000000000000000000000000000000CB
:1045F00000000000000000000000000000000000BB
:104600001061040000000000300000001061040090
:104610003861040000000000020000002061040076
:10462000306104000000000004000000306104005C
:104630000000000000000000000000001061040005
:104640003C0000000000EEEEEEEE18F09FE518F0E2
:104650009FE518F09FE518F09FE50000A0E118F035
:104660009FE518F09FE544000000B4080000B4087E
:104670000000B4080000B408000000000000E408D6
:1046800000003C003C0000000009000000000000A9
:1046900000000FE11F00C0E3130080E3C00080E3CF
:1046A00000F02FE11CF09FE53D0200EB5A0200EB09
:1046B0008D0200EB01008FE210FF2FE141F0DEFBE5
:1046C00001F0DCFD3C0078000000FEE700005C002B
:1046D00000007847C046010000EA7847C04617004E
:1046E00000EA8C119FE5002091E500300FE1841174
:1046F0009FE5FD20A1E880019FE580219FE5012045
:1047000042E00D0040E03C00B4000000020050E137
:10471000280000AA68019FE50D0050E1020000BAE0
:10472000042010E4042081E4FAFFFFEA58119FE519
:1047300058019FE5000081E53C119FE550019FE590
:10474000000081E51EFF2FE13C00F0000000481151
:104750009FE5000091E524119FE5000081E52C1103
:104760009FE538019FE5000081E51EFF2FE17402FF
:1047700000EB10019FE528119FE5042091E404203F
:1047800000E404219FE5020051E13C002C010000FF
:10479000FAFFFF1AF0109FE5FD20B1E803F02FE1CA
:1047A000E0109FE5002081E5E8109FE5F4209FE5FB
:1047B000002081E5021080E2000020E0010040E2DC
:1047C00011FF2FE101008FE210FF2FE13C00680193
:1047D000000001F09CF87847000001008FE210FF14
:1047E0002FE101F094F87847000003002DE9001054
:1047F0000FE1001080E5B8109FE5041080E500107F
:10480000A0E1100080E2FC1FA0E80020A0E13C0035
:10481000A40100000130A0E10300BDE8080083E529
:104820000C1083E5D300A0E300F021E10060A2E8D2
:1048300000104FE1041082E4D200A0E300F021E177
:104840000060A2E800104FE1041082E4D100A0E370
:104850003C00E001000000F021E1007FA2E8001030
:104860004FE1041082E4D700A0E300F021E10060F2
:10487000A2E800104FE1041082E4DB00A0E300F0A6
:1048800021E10060A2E800104FE1001082E5000085
:1048900093E53C001C02000000F02FE11EFF2FE119
:1048A000200000000403000020EE0100D8030000F7
:1048B0000000000018F09FE5100100000803000050
:1048C000EEEEEEEE2403000020020000B0B5041C62
:1048D000631C0B4D3C005802000001D16C6910E0D4
:1048E00000F06CFB0948FFF70CFFEC60084A5168C8
:1048F00050688842FCD00220287001218A2001F0F3
:1049000012F8201CB0BD3000070051020000000367
:104910000700B0B5051C3C0094020000002400F024
:1049200050FB1448FFF7F0FE13491448C160012101
:10493000134A490391601349CA7808239A43CA70FD
:10494000CA7804231A43CA706B1C0DD00E4B5A68E8
:1049500059689142FCD0BE213C00D002000019737E
:10496000197A112291431972197AC907FCD40221CC
:104970000170FFF7D0FE201CB0BD91020000FFFFC8
:10498000FF003000070000100700000007000003D0
:10499000070000000000000000003C000C030000C5
:1049A0000000000000000000000000000000000007
:1049B00000000000000000000000000000000000F7
:1049C00000000000000000000000000000000000E7
:1049D0000000000000000000000000003C00480350
:1049E00000000000000000000000000000000000C7
:1049F00000000000000000000000000000000000B7
:104A000000000000000000000000000000000000A6
:104A100000000000000000000000000000003C005A
:104A200084030000000000000000000000000000FF
:104A30000000000000000000000000000000000076
:104A40000000000000000000000000000000000066
:104A50000000000000000000000000000000000056
:104A60003C00C00300000000000000000000000047
:104A700000000000000000000000000000000047EF
:104A8000084710471847204728473047384710B590
:104A9000041C101C00F023F903C410BC08BC184708
:104AA00000003C00FC03000010B4042A0ED3031CD9
:104AB0000B439B070AD108C810C9A34202D1043A8C
:104AC000042AF8D2A34201D004380439002A02D1C2
:104AD000002010BC7047D30701D5013205E00378F0
:104AE0000C7801313C00380400000130A34207D1AA
:104AF00003780C7801310130A34201D1023AF1D19F
:104B0000181BE9E70000784700000020A0E304003C
:104B100051E30800003A03C010E20D00000A04C08F
:104B20006CE202005CE33C00740400000120C0E47D
:104B30000120C0A40120C0C40C1041E0060000EA1E
:104B400081CFB0E10120C0240120C0240120C04455
:104B50001EFF2FE1784700000020A0E300402DE970
:104B60000230A0E102C0A0E13C00B004000002E07D
:104B7000A0E1201051E20C50A0280C50A0282010D9
:104B80005122FBFFFF2A011EB0E10C50A0280C00AF
:104B9000A0480040BDE80111B0E1042080241EFFC0
:104BA0002F010120C0440120C0443C00EC0400005F
:104BB000400411E30120C0141EFF2FE178470000DC
:104BC000030052E33E00009A03C010E20800000A0E
:104BD0000130D1E402005CE30C2082E001C0D194FA
:104BE0000130C0E40130D134042042E23C00280509
:104BF000000001C0C0940130C034033011E21E0037
:104C0000000A042052E22F00003A03C031E70200FC
:104C100053E30800000A0F00008A2C34A0E104C00E
:104C2000B1E5042052E20C3C83E1043080E43C0016
:104C300064050000F9FFFF2A011081E2230000EA69
:104C40002C38A0E104C0B1E5042052E20C3883E125
:104C5000043080E4F9FFFF2A021081E21B0000EA21
:104C60002C3CA0E104C0B1E5042052E20C3483E105
:104C70003C00A0050000043080E4F9FFFF2A031087
:104C800081E2130000EA7847000010402DE920205F
:104C900052E20500003A1850B1281850A0281850C8
:104CA000B1281850A02820205222F9FFFF2A02CE56
:104CB000B0E13C00DC0500001850B1281850A028D5
:104CC0001800B1481800A0481040BDE802CFB0E17C
:104CD00004309124043080241EFF2F01822FB0E184
:104CE0000120D1440130D12401C0D1240120C0448D
:104CF0000130C0243C001806000001C0C0241EFF83
:104D00002FE178470000FF3001E20210A0E1032408
:104D100083E1022882E188FFFFEA784700008024CF
:104D200010E200006042413032E000106122A1C177
:104D300070E02000003A3C005406000021C470E0FE
:104D40000F00003A0004A0E1FF2482E321C270E0DA
:104D50001700003A21C470E00900003A0004A0E105
:104D6000FF2882E321C470E00004A021FF2C8223ED
:104D700021C270E00E00003A3C009006000000C026
:104D800070E28300002A2004A021A1C370E08013F8
:104D900041200220A2E021C370E000134120022044
:104DA000A2E0A1C270E0801241200220A2E021C254
:104DB00070E0001241200220A2E03C00CC0600007E
:104DC000A1C170E0801141200220A2E021C170E069
:104DD000001141200220A2E0A1C070E0801041201B
:104DE0000220A2E001C070E0001041200220B2E0E9
:104DF000E5FFFF2AC30F32E0A30F80E03C00080765
:104E00000000001061221EFF2FE178470000002003
:104E1000A0E3A1C170E02000003A21C470E00F00BF
:104E2000003A0004A0E1FF2482E321C270E01700F1
:104E3000003A21C470E00900003A0004A0E13C00FF
:104E400044070000FF2882E321C470E00004A02191
:104E5000FF2C822321C270E00E00003A00C070E2F5
:104E60005000002A2004A021A1C370E0801341203B
:104E70000220A2E021C370E0001341200220A2E042
:104E80003C0080070000A1C270E080124120022097
:104E9000A2E021C270E0001241200220A2E0A1C1E4
:104EA00070E0801141200220A2E021C170E00011D9
:104EB00041200220A2E0A1C070E080104120022029
:104EC000A2E03C00BC07000001C070E000104120DF
:104ED0000220B2E0E5FFFF2A0200A0E11EFF2FE161
:104EE000784700000A1040E2200140E0200280E004
:104EF000200480E0200880E0A001A0E1002180E003
:104F0000821051E03C00F8070000010080520A10B6
:104F100081421EFF2FE130B4441C810708D0017884
:104F20000130002902D1001B30BC70478107F6D147
:104F30000B4AD50102C88B1A8B432B40FAD0001BB9
:104F40000A0601D103383C0034080000EFE70A04E8
:104F5000120E01D10238EAE70902090EE7D1013841
:104F6000E5E7000001010101F0B4031C041C0C433F
:104F7000A4070CD1104DEF0102E00431043A10C334
:104F8000042A04D30C68661B3C0070080000A6438A
:104F90003E40F5D0002A07D00C7801311C70013357
:104FA000002C03D0013AF7D1F0BC7047012AFBD99D
:104FB000511E00221A7001330139FBD1F4E70101BF
:104FC0000101784700000200A0E33C00AC080000AB
:104FD0000210A0E32EFEFFEA1F402DE900000FE1C2
:104FE000C00080E300F02FE18100A0E30210A0E305
:104FF00001208FE212FF2FE100F0E6FC784700006D
:105000001F40BDE8FEFFFFEA1F502DE93C00E80805
:10501000000001008FE210FF2FE100F040FB784715
:1050200000001F50BDE804F05EE21F502DE90100B2
:105030008FE210FF2FE100F018FB784700001F50AF
:10504000BDE804F05EE200BD01B500A000473C00F1
:105050002409000000300FE1C030C3E303F021E178
:1050600001008FE210FF2FE101BD01B500A0004754
:1050700000300FE1C03083E303F021E101008FE253
:1050800010FF2FE101BD000018009FE5041090E41F
:105090003C0060090000000051E30200000A042007
:1050A00090E4002081E5F9FFFFEA0EF0A0E17C0921
:1050B0000000000000004400000044000000D8038D
:1050C0000000D8030000D80300000000000000002A
:1050D00000003C009C090000440000004400000067
:1050E000440000000080010000800100108E0100DB
:1050F000108E010088F8010001000000001004007B
:10510000C433040000000400000000000E50A0E1C1
:1051100058409FE53C00D8090000040094E40100D9
:1051200050E305F0A001041094E4042094E403008B
:1051300000EB040094E4041094E4070000EBF5FF96
:10514000FFEA010050E10EF0A001020051E104303D
:105150009014043081143C00140A0000FBFFFF1A75
:105160000EF0A0E114209FE5002092E5010050E13F
:1051700004208014FCFFFF1A0EF0A0E1800900005B
:10518000CC0900000008000020E601001300000028
:105190005356435F000400003C00500A000020EE1C
:1051A0000100120000004952515F0002000020F28D
:1051B0000100110000004649515F8000000020F40A
:1051C0000100170000004142545F00000000A0F4FD
:1051D00001001B000000554E445F3C008C0A00009B
:1051E00000000000A0F401001F0000005553525FB2
:1051F000010000000E50A0E100600FE18C409FE52F
:10520000041094E4010051E30900000A040094E44E
:10521000011080E00310C1E3042094E43C00C80ABC
:105220000000C02082E302F02FE104D041E204201C
:1052300094E4130000EBF2FFFFEA06F02FE105F023
:10524000A0E10E50A0E100600FE144409FE5041092
:1052500094E4010051E30800000A040094E43C00D7
:10526000040B0000011080E00310C1E3042094E46B
:10527000C02082E302F02FE104D041E2042094E454
:10528000F3FFFFEA06F02FE105F0A0E1010050E195
:1052900004208014FCFFFF1A0EF0A0E13C0A00007D
:1052A0003C00400B00000160C046C046C04670474D
:1052B0000000101E10EE020011E3FCFFFF1A100E9A
:1052C00001EE101E10EE020011E3FCFFFF1A1EFF9C
:1052D0002FE1101E10EE010011E30300000A101E62
:1052E00011EE3C007C0B0000001080E50100A0E303
:1052F0001EFF2FE1000020E01EFF2FE18D469746A4
:105300007847C04678FDFFEA10B5041C032801D990
:1053100000F0ACFB0C484068002800D003240B4888
:10532000016809483C00B80B00001230002905D084
:1053300006216143405CC300181804E00621614364
:10534000405C142358430A300006000E10BDD47A86
:105350000100A869010080B5094A0949032000F04D
:10536000F2F9084908203C00F40B0000086048608E
:1053700007491D2001F0B2FC06491E2001F0AEFCD9
:1053800080BD0000006C0100312700000010070004
:105390002925000031250000054980B508208860D6
:1053A0001D2001F0BFFC1E203C00300C000001F06D
:1053B000BCFC80BD000000100700021C081CD12AA4
:1053C00080B501D105F019FC80BD034980B50020EE
:1053D0000880052005F0D5FB80BDB074010080B5C4
:1053E000542801D106F0CDF880BD3C006C0C0000C3
:1053F000B0B5104D021C0124012A0D48296806D0C1
:10540000C42A03D16A68002A05D0AC60B0BD0EF092
:1054100089FB6C6008E00022AA606C600EF082FBE1
:105420000021042012F0C8FC06F0D8F83C00A80CBB
:105430000000B0BD0000C4600100BC740100054A5A
:105440005169081A116909681031814201D8506107
:105450007047002070478C6E010001494968401A6E
:1054600070478C6E010001484069704700003C00A5
:10547000E40C00008C6E0100024A5169081850616A
:10548000704700008C6E01000E490F4810B51922BC
:10549000920141608918C1600B4900220C31016002
:1054A0000A49826009680123DB03C918084C41617D
:1054B0003C00200D00002168002902D0074901614D
:1054C00001E000F00CF8226010BD44DC01008C6E9D
:1054D0000100C809000034580100C4090000014857
:1054E000024908617047C80900008C6E0100082855
:1054F00005D23C005C0D0000034B800019500249AE
:1055000020310A5070470000646D010070B5061C20
:105510000D480D1C0068141C002803D1201C00F04D
:1055200009FC70BD280601D500F022FE221C291CB2
:10553000301C08F03C00980D0000DDFD011C034804
:1055400054304369321CFFF71BFB70BD0000506DE7
:105550000100F8B5061C0D481F1C0068151C0C1C2A
:10556000002802D1281C00F0E8FB200601D500F03D
:1055700002FE2A1C211C3C00D40D0000301C08F047
:10558000BDFD011C0348543043693A1CFFF7FBFA88
:10559000F8BD0000506D0100F8B5F1284ED12A4841
:1055A00069468269FFF7EEFA274900265439C86830
:1055B0008B68C2000130D5183C00100E000007288F
:1055C000C86000D1CE6022486C680068002803D013
:1055D0000021201C08F03BFB6E6025682089A9781B
:1055E0000239401AE978401A2081A8782818023830
:1055F00020606E782878082817D23C004C0E0000F6
:10560000300607D5271C201C00F07AFC041C381C2F
:1056100000F09CFB28780F49403980000A58002A86
:1056200004D0311C201CFFF7B3FA08E0052100E08C
:105630000421062000F010FA201C00F03C00880E27
:10564000000087FB300601D500F0A1FDF8BD012167
:10565000062000F004FAF9E70000A46D0100CC5C1C
:105660000100F8B51A4D194F01245435291C0320A7
:105670007C60174B184A05F0F4FB002802D03C0070
:10568000C40E0000002038601FE03C600721281C89
:10569000EA69FFF783FA382000F080FC0024B86044
:1056A000B868E60035186846022100F075FB2860EE
:1056B000281C00F0A5FDB868815906485430026ADC
:1056C0003C00000F0000FFF76CFA0134072CEADB06
:1056D0000020F8603861F8BD0000506D0100819A2B
:1056E0000000619A0000054880B50068002805D0D8
:1056F00003485430426A0021FFF753FA80BD506DD1
:1057000001003C003C0F00007047000070B50A4EDD
:10571000094D084C083EA169002907D03068416056
:10572000007B81006958FFF73EFAF4E70349022045
:10573000087070BD00100700E07E01000002070045
:1057400070B50A4E3C00780F0000094D084C083E29
:10575000E169002907D070684160007B81006958C9
:10576000FFF724FAF4E703490220087070BD001027
:105770000700E07E010000020700B0B5094D041CDF
:10578000281C202240303C00B40F00000549FFF7E0
:105790009FFAE068E86020692861A06AA8626068F2
:1057A0006860B0BD7052010000100700F8B5002419
:1057B0000023202801DB012407E0084E8000355833
:1057C000074FBD4200D02B1C3C00F00F00003150B1
:1057D0001360002C03D0211C822000F052F9201C01
:1057E000F8BDE07E010075750000B0B50B4D041CDE
:1057F000286800280FD0201C12F0B7FD00280AD01E
:10580000217A287A0A070007000F3C002C100000BC
:10581000120F9042297201D00120B0BD0020B0BD0E
:1058200070780100F0B5424E051C306885B0002844
:1058300063D000240020002D06D06978182903D1F8
:10584000E979012900D10120002845D03C006810E9
:1058500000000020B07281004A19937A5906890F1E
:10586000DB0604D5B37A01278F403B43B372D27A6B
:1058700013091207120F934205D301228A401443E1
:1058800001AA8900505001300428E4DBB07A3C00C2
:10589000A4100000204001070DD5410709D5C1071C
:1058A00005D5810701D5002405E0029902E00199A0
:1058B00000E003990491410709D5C10705D5810787
:1058C00001D5002403E0029900E001990391C1078A
:1058D0003C00E010000005D5810701D5002401E05F
:1058E00002990191800701D5002422E00F2C20D1DC
:1058F000706800280BD0049A02AB00920ACB019A80
:10590000281C0BF08AFB0020706010E017E0307A52
:10591000297A3C001C11000000070907090F000F3D
:10592000884207D0049A02AB00920ACB019A281C45
:105930000BF076FB287A307201200F2C00D000206B
:1059400005B0F0BD0120FBE7707801000D4A70B58D
:10595000116800203C005811000000290ED0117A77
:1059600009060BD5537A947A032101252A1C8A4013
:105970001E1C164003D0224001D1012070BDFF3112
:1059800009060916F2D570BD00007078010010B547
:10599000084C206800283C009411000004D0606886
:1059A000002801D10BF0C0FB00200021002207C419
:1059B0000C3C0120606010BD70780100014901209D
:1059C0000860704770780100F8B50E4D041C002087
:1059D0006872201C12F0DEFC3C00D0110000002890
:1059E00012D00020032101220F1A161C237ABE4078
:1059F000334004D06B7A161C864033436B720130FF
:105A00000006000E0328EFD9F8BD7078010092005F
:105A100051188A7A1207120F02703C000C12000013
:105A2000CA7A1207120F4270CA7A12098270097B71
:105A300081807047034A0F21527A0120914300D0A0
:105A4000002070477078010040070549400F054A63
:105A50000956527A01200A4000D100203C00481229
:105A60000000704700005E46010070780100124A95
:105A700070B5537A947AFF20032101252A1C8A40AD
:105A80001E1C164014D0224012D10806000E07D06A
:105A9000012807D0022807D0032807D107203C009F
:105AA0008412000070BD032070BD012070BD052070
:105AB00070BDFF2070BDFF3109060916E1D570BD2C
:105AC00070780100F8B5041C13480D1C816800298A
:105AD00005D0017B002901D104734573F8BD0F4E39
:105AE0003C00C0120000311C20318A7900AB1A70D2
:105AF000C97959704268002A07D020022843011C46
:105B00000020FFF77EF8002804D12A1C211C002069
:105B100011F00FF800AB1888F084E2E70000885A13
:105B200001003C00FC1200000010070080B50121BC
:105B30008120FFF7CDFF80BD0149012088607047BB
:105B4000885A0100054980B500208860087B00283C
:105B500002D0497BFFF7BCFF80BD0000885A0100DE
:105B6000024A011C3C003813000050685160704725
:105B70000000885A010010B50C1C07F064FA04619B
:105B8000002010BD0000FFB50E1C1F1C382081B086
:105B900000F03DFA1D49041C4869002801D14C6100
:105BA00000E0046030013C00741300000090000429
:105BB000000C00F015FA051C0099FFF78BF8002087
:105BC000731E04E001014A1910326A5001309842F4
:105BD000F8D300012D503821201CFFF77BF8A56079
:105BE0006560E6850C2060863C00B0130000AF20A5
:105BF0008001E0610E20E086002020600198E060D6
:105C0000386860610399044808600448386005B04A
:105C10000020F0BD0000FC5A0100DD150100FD165A
:105C20000100021C081CF02A80B53C00EC130000A7
:105C300004D0F12A07D106F009FB80BD07F00CFA69
:105C40000DF0A8FA80BD01210220FFF74DFF80BDB5
:105C50000149002048617047FC5A0100002802D029
:105C6000002900D0C1607047F8B5171C3C0028140B
:105C700000000E1C051C1C1C1C3007F0C8F8016934
:105C8000426980688919891A814206D2231C3A1C0C
:105C9000311C281C00F005F8F8BD00203860206099
:105CA000FAE7FFB585B0059801270E1C1C303C00B3
:105CB0006414000007F0AEF8041C808804300390E0
:105CC0002C48049080790290A069B04217D2351A0E
:105CD00011E00398FFF716FC002806D101218E2061
:105CE000FFF708FF0025002705E02168016020601C
:105CF0003C00A0140000A0690130A061013DEBD27E
:105D0000002F35D0A069801BA06120698019206117
:105D10006169401AE168884203D907218E20FFF7A4
:105D2000ECFE25682F1C701E019500E03F680138CD
:105D3000FCD23C00DC140000386820600298049912
:105D400088712E682C60321D0092291C203101229E
:105D5000281D059B08F07AFCBD4201D0351CF0E7F8
:105D600000203861019807990430086008980437CA
:105D7000076009B03C0018150000F0BD02980499B6
:105D80008871F9E700002010070038B5041C151CC5
:105D900000200C6009E0E268201C0092A38A2168C0
:105DA000A26908F056FC201CE468002CF3D128609E
:105DB00038BD80B50CE03C0054150000C2688A4232
:105DC00008D10021C160002803D106218E20FFF7F1
:105DD0009DFE80BD101C0028F7D0EFE710B5041C15
:105DE0000CD0A069002806D12069002803D006F055
:105DF000F7FD00202061201C3C009015000006F0FB
:105E0000F2FD10BD000010B5002809D0C46803E001
:105E1000FFF7E7FF201CF9E7002CF9D1FFF7E1FFBE
:105E200010BD011C002004E00A89C9681018000494
:105E3000000C0029F8D1704700003C00CC15000090
:105E400000E0081CC1680029FBD17047F8B5061CAA
:105E50000C1C1C2000F068FA051C002E01D1002C3F
:105E600002D1301C012103E0201C00F05DFA00216A
:105E7000002200920A1C011C231C281C3C0008164E
:105E8000000008F0F2FB281CF8BDB0B50332920800
:105E900092001404240C09191D1CC9180904090CCA
:105EA000FFF7D7FF018902681219091B491B02601D
:105EB0000181B0BD0000F8B50A4CA021201C3C00B7
:105EC00044160000FEF72AFF0020261CA036074DCE
:105ED00007E00C21414349190EC9271D0EC7203484
:105EE0000130A642F5D1F8BDD05C0100C83F0100E9
:105EF000F7B5C468061C0025002C82B023D0208989
:105F00003C0080160000904220D3E168871A01917E
:105F10000021E16003990020FFF7A1FF051C208903
:105F2000C01B20812A680399301C00F016F82089D4
:105F3000C01920810199201CFFF7B1FE211C281CEB
:105F4000FFF73C00BC160000ADFE291C301CFFF71B
:105F5000A9FE0120002D00D1002005B0F0BD0000F9
:105F6000F7B5041C0E1C002001E0201C0C1CE1688D
:105F70000029FAD12789B7420AD3B81B0004000CC4
:105F8000208121683C00F816000009180298321C94
:105F9000FEF7FBFEFEBDF11B0D042D0C002819D0F1
:105FA0000189A94216D3491B0904090C0181006823
:105FB000411802982A1CFEF7E8FE21680298721B1D
:105FC0004019FEF7E2FE3C00341700002089C01B98
:105FD00020812068C0192060DFE703218E20FFF7B1
:105FE000ADFDDAE7F8B5041C002613E02189002096
:105FF000FFF73EFF051C228921680068FEF7C8FEF6
:10600000002E01D12E1C03E03C0070170000291C5B
:10601000381CFFF750FEE4682F1C002CE9D1301C1F
:10602000F8BDB0B5041C0089401A050420682D0C89
:106030004018291CFFF71FFF2189491B2181E168B6
:10604000C160E060B0BD10B503303C00AC1700008B
:10605000094A810810683D24084B64018900091829
:106060001B19994201D8116010BD0F218020FFF744
:106070006BFD002010BD0000B4CF010014C801006A
:1060800010B511F061FF041C03D10D213C00E8178D
:1060900000008020FFF75BFD201C10BD0000B0B5A4
:1060A000011F0B680D480022834204D001321030DA
:1060B000032AF9D301E0032A06D30924211C8020F6
:1060C000FFF745FD201CB0BD054B00249A793C002C
:1060D0002418000085680D6081609A71F5E7000062
:1060E0002057010020100700B0B50021104A0023FE
:1060F000D468844204D201331032032BF8D301E078
:10610000032B01D304210EE00A4CA37990680028E8
:106110003C006018000002D1A371032106E005686D
:106120009560A371002901D104C0B0BD8020FFF7A4
:1061300014FD0020B0BD2057010020100700A03042
:10614000008A4007400F08280FD201A31B5C5B00A8
:106150009F443C009C18000005030305070709093C
:1061600001207047002070470220704703207047CD
:1061700004207047B0B5104D6869002807D00E495B
:1061800000222C3103C90143032006F0CFFF0B4C42
:10619000002203CC3C00D8180000083C0143032037
:1061A00006F0AFFF03CC084307494A6802434A6040
:1061B0008A681043886001206861B0BD0000647384
:1061C0000100B058010010000700B0B50C1C0FF022
:1061D000A8FA054DE86A3C0014190000002806D111
:1061E000002C04D0201C0FF0B7FD01202870B0BD9A
:1061F000F46E0100054980B5886A002804DA0020A1
:10620000886201210DF042FD80BD0000AC7E0100DE
:10621000F8B51E4D041C00203C00501900006862B7
:10622000A8701C480078C00722D5B82003591A4826
:1062300000780E2809D10A1C803206D0184E0D2095
:10624000325C8A4201DD0138FAD1591E0B061B0E61
:10625000AB70AB620E280BD208E03C008C1900003A
:106260006218B032127B824202D8581AA86202E049
:1062700001390029F4DA0EF035F9009000AB1878F6
:106280005978814200D95878ED30E8700121201CFE
:106290000DF002FDF8BD0000AC7E01003C00C81905
:1062A00000001D75010011670100C75201000E4971
:1062B00010B508698B68C200D4186268002A0FD133
:1062C00001300861072801D100200861201C00F07E
:1062D00024F8054821685430026AFEF7ECFC3C00C3
:1062E000041A000010BD06210620FFF74BFC10BD6C
:1062F000506D010008490979C907084A08D400E02F
:10630000081CC1680029FBD101890431018100E02A
:106310000020D0627047000060800700046C01001C
:106320003C00401A000010B5041C1921890100200E
:10633000FFF7C5FD011C60602068FFF7E0FC6068A6
:1063400021680830086010BD00000A2801DA042026
:1063500004E0502801DA052000E00720044A117803
:1063600038233C007C1A0000C000184099430843C1
:106370001070704788000700B0B5051C07484068DA
:1063800008E00169A94204D1446805F0C7FD201C5A
:1063900000E040680028F4D1B0BD0000587501004D
:1063A000F8B500253C00B81A000006F084FD114F36
:1063B000041CBE792068002807D1A0880430FFF7AC
:1063C000F2F8002806D101210FE001682160A169DF
:1063D0000139A16110C0051C20690130206161698B
:1063E000401AE16888423C00F41A000003D90721F2
:1063F0008E20FFF7D3FBBE71281CF8BD20100700CC
:10640000B0B509F0BBFF2F4C0028207403D0012148
:1064100001200AF071FC2B4D1435286800284DD05E
:1064200001210F2011F082FD3C00301B0000288963
:1064300008F0FBFF011C01220F2011F040FDE07865
:106440000125022836D10AF0C6F800280AD00BF040
:1064500092FB1E490968401811F05FF8002801D12D
:1064600002202FE0E078022824D13C006C1B0000C1
:1064700060702570606801281CD015481038817B39
:10648000002904D185730F20134910F001FC08F096
:106490004FFE002807D00E4801219838006901F00E
:1064A000B7FD002805D001200EF00CFD3C00A81B14
:1064B000000001200EF01DFCB0BD05F0DCFEB0BDFB
:1064C000E078002801D12570F7E7032000E00420E0
:1064D0000DF08DFAB0BD846601006C570100E90330
:1064E000010070B5041C002100200A4D00E03C00B2
:1064F000E41B00000131CB005A191679012E02D09D
:106500005279A24202D00B29F4D370BD0B29FCD2E0
:10651000C80001215A192858117170BD385801005E
:10652000054880B5007F2423044958434018006A79
:106530003C00201C0000FEF7DAFB80BD0000D4798F
:1065400001009446010080B504F037FF002011F0EF
:1065500084FC002080BDB0B5054C051C206BE16AB1
:1065600002F0E3FD291CA06A02F011FBB0BDA46C8F
:1065700001003C005C1C0000B0B5031C081C141C8E
:10658000002B0C4D09D06969890001310A04120CF5
:106590002280291CFEF73EFC0AE0011C281C2288F0
:1065A000FEF738FC2088012802D98008013868618C
:1065B0000120B0BD3C00981C0000206E0100F1B528
:1065C00000980026C168086809891C2934D3C1884D
:1065D000FF23013399422FD10188C91A2CD1418858
:1065E000082929D10179062926D14179042923D105
:1065F00000250024071C3C00D41C000018370BE0C9
:10660000A000411804310422381CFEF78BFB00283F
:1066100001D1012504E001340A494869A042EFD8BC
:106620000849087800280AD0012801D0022806D19C
:10663000002D04D10098C0683C00101D0000FFF739
:1066400042FC0126301CF8BD0000206E010001480C
:10665000406870470000206E010002494860012038
:10666000486170470000206E010070B5041C0126CF
:1066700003F0EFFA251C103500283C004C1D0000EB
:1066800004D00020207703F0F1FB07E003F038FD91
:10669000002809D00120207703F0CEFC011C06223F
:1066A000281CFEF7C3FB02E0022020770026301CE6
:1066B00070BD00000348807AC00703493C00881D74
:1066C0000000C00F88627047000040900700A46C73
:1066D00001000149012088627047A46C010006484E
:1066E000807AC107064AC90F91622021800700D431
:1066F0000021A032117070470000409007003C005C
:10670000C41D0000A46C0100074A1268074B9B6976
:106710001A4001D0012200E000220A600121002A73
:1067200000D000210160704710000700A46C010038
:10673000012202600A607047B0B50D1C011C58317F
:106740003C00001E0000041C0622281DFEF777FBFB
:10675000211C5E310622281C0A30FEF770FB211C2A
:1067600064310622281C1030FEF769FBB0BDFEB56F
:1067700000251D72171C0E1CB26D0021921950329B
:10678000D27A3C003C1E00001C1C5A720078321C5D
:106790008032C007C017013001900898029200288B
:1067A00001D1307F2BE037480068002800DD011C54
:1067B0000198002802D00898012810D1029A906B05
:1067C000002806D03C00781E0000884201D9451AF6
:1067D000013D7019B03003E0B56D013D70195030C6
:1067E000007B0FE0029A106A002807D0884201D986
:1067F000451A013D7019A030007903E0BD69013DE3
:106800007819007FA0723C00B41E00000EF00CF856
:106810000E2811D1A07A08F067FF00280CD0786804
:10682000002805D11B480025007808F04BFF02E046
:10683000451E7819007AA072029A5069002817D074
:106840000898012814D0A07A3C00F01E000008F03F
:106850004EFF00280FD00198002807D00220207298
:10686000706C80194030C079607204E07D68013D31
:106870007819007AA072029AA07A916908F051FF03
:106880002060029A607A916908F03C002C1F000099
:106890004BFF6060A07AE0722573FEBDD47E0100DC
:1068A000905701000006000E002A8CB501D08A2204
:1068B00000E0882200AB1A800CF0C2F80190684614
:1068C0000BF0BCFA8CBD0000011C08483C00681F9E
:1068D000000080B50068002809D04968022000291E
:1068E00000D101200106090E002006F0D8FF80BD6E
:1068F0000000206701001CB50190041C443001AA6F
:10690000694611F0B8FD00280BD0A06900213C00B9
:10691000A41F0000C207D20F0220FFF7C9FF002109
:10692000201C0FF0D9FE1CBD04219820FFF772F93E
:10693000F9E700008CB500AB84211980054B021CDF
:10694000181C998A0CF08EF8019068460BF07CFABE
:106950003C00E01F00008CBD0000707C010070470F
:106960000000064980B5C96814234031897A044A79
:106970005943891880000858FEF7E9F980BD707CFA
:1069800001005447010080B50020FFF7D6FF80BD0D
:1069900000003C001C20000080B512481149808A8C
:1069A0000A8B00210028C2B00CD1012A05D0022A8E
:1069B00015D000AB5A800E2207E0022200AB5A80AD
:1069C000998004E000AB5A800D2200AB9A8000ABA6
:1069D0001880FF203C00582000009871D97168464B
:1069E00000F0D1F942B080BD0000707C010010B50C
:1069F00009F05FFC002005F02AF9034CE08A05F05D
:106A000036F9201C0FF0B3FE10BD707C01001CB5E0
:106A100009F04FFC07203C009420000000AB074C1D
:106A20001880E18A201C0CF00BF8019068460BF0EE
:106A300017FA201C0FF09EFE1CBD0000707C0100A8
:106A400080B502219820FFF7F1F880BD10B5154CF4
:106A5000C2B0A08A002803D03C00D020000001284A
:106A60001ED1022000E00120E168403188722069D7
:106A700008F023FD021C0C4818388088E1680FF0EC
:106A8000A4FEA08A00AB18800120588000209880C6
:106A9000FF219971D871684600F03C000C2100007C
:106AA0007BF942B010BD03219820FFF7C5F8F8E745
:106AB000707C01007047000080B503480FF060FE55
:106AC000002005F0CDF880BD707C010080B5024843
:106AD0000FF056FE80BD0000707C01003C00482194
:106AE000000080B502219820FFF7A9F880BD80B58D
:106AF0000320FFF734FF80BD0000F0B5214E0027D2
:106B0000B18A301C002504240029008BC3B01ED19B
:106B1000012807D0311C498B022812D100293C00E2
:106B20008421000007D1002405E000240125022073
:106B300000ABD8801F810FF07FFF002C10D1F168CF
:106B40000520403188720EE000291AD100ABD880B0
:106B50000E2002E000ABD8800D2000AB188107E0CA
:106B60003C00C0210000301C0FF013FE201CFFF77A
:106B7000FCFE002D08D0B08A00AB9880FF209872F0
:106B8000DF7201A800F011F943B0F0BD0000707C85
:106B9000010010B5002005F06CF8044CE08A05F007
:106BA00078F83C00FC2100000FF04CFF201C0FF097
:106BB000F3FD10BD707C010080B50420FFF7D8FE06
:106BC00001480FF0E9FD80BD707C010080B5022016
:106BD000FFF7CEFE012005F05FF802480FF0DCFD64
:106BE00080BD00003C0038220000707C010080B5B0
:106BF0000320FFF7C0FE80BD0000B0B51D4DC2B040
:106C0000288B00ABFF21588099710021D971AA8A85
:106C10000024012A18D12A1C528B02280FD1002AE5
:106C200016D1032058803C007422000099802C1C4F
:106C3000FF22981DE969FEF73BF9E1680420403125
:106C4000887210E0002A06D101240E2001E0012400
:106C50000D2000AB9880281C0FF0A4FD0420FFF746
:106C60008DFE002C05D0A88A3C00B022000000ABAD
:106C70001880684600F0A5F842B0B0BD0000707CF6
:106C8000010010B5002005F000F8034CE08A05F083
:106C90000CF8201C0FF089FD10BD707C010080B540
:106CA0000420FFF76EFE01480FF03C00EC220000CC
:106CB0007FFD80BD707C010080B50220FFF764FE7F
:106CC000012004F0F5FF02480FF072FD80BD0000C6
:106CD000707C010080B50320FFF756FE80BD0000E8
:106CE000B0B5194D0424A98A281C028B3C00282326
:106CF0000000C2B0012914D1408B042A0BD1002816
:106D000000D100240FF0ADFE002C19D1E968052058
:106D10004031887217E0002810D100AB5A800E2055
:106D200002E000AB5A800D2000AB988019803C0037
:106D300064230000FF2098710020D871684600F09D
:106D400049F842B0B0BD281C0FF038FD201CFFF7F9
:106D500021FEF6E7707C010010B5002004F09EFFD4
:106D6000034CE08A04F0AAFF201C0FF027FD10BDA1
:106D70003C00A0230000707C010080B50420FFF7D8
:106D80000CFE01480FF01DFD80BD707C010080B538
:106D90000220FFF702FE012004F093FF02480FF0EB
:106DA00010FD80BD0000707C0100B0B50A4D011CD3
:106DB00044313C00DC230000041C0622281CFEF7A2
:106DC00089F8EC60206903F097F8011C0622A818E6
:106DD000FEF780F80420FFF7F7FDB0BD707C0100DE
:106DE00090B5041C808893B0002806D0154906226F
:106DF000488018313C0018240000881FFEF76DF809
:106E000068460CF014F82088012808D1608803280F
:106E100005D1A088002802D106200CA90870A0790D
:106E20000621FF2804D0E079002801D0011C083198
:106E30000B2008AA50723C0054240000201C08F0CB
:106E40003BFF039068460BF031F813B090BD000093
:106E5000587C0100074B1A78824201D0002907D0E4
:106E6000FF201870044801880122520391430180D9
:106E7000704700004C7B01003C00902400003280F1
:106E8000070010B5041C0C2307495843401800792B
:106E90000AF04FF901200349A04008390A7810434D
:106EA000087010BD0000747A0100034A00211154DB
:106EB000800030321058017070473C00CC24000034
:106EC000E07A010010B5041C052801D3FEF712FF7B
:106ED000201CFFF7EDFF0021201C0EF089FB10BDE8
:106EE000054980B58860087F242304495843085821
:106EF000FDF76CFF80BD0000D47901003C0008253F
:106F000000009446010080B501219120FEF7C7FEE4
:106F100080BD024A11688143116070470000786E9D
:106F2000010080B5FEF7E9FE80BD80B5FEF7E5FE05
:106F300080BD80B500F031FA80BD034980B53C00CA
:106F4000442500000420886000F0D0F980BD0000D6
:106F50000030070080B500F099FA80BD80B500F0E0
:106F600099FB80BD38B5202815D20D4C221C20324B
:106F7000957900AB1D70D2795A700A4B82009950F6
:106F80003C008025000001218140084801604268E2
:106F90001143416000AB1888E08438BD0121FF2017
:106FA000FEF783FEF9E7001007003074010000408F
:106FB0000700202809D20549064B82009950054A4E
:106FC00051683C00BC250000012383409943516077
:106FD00070470000A97500003074010000400700F0
:106FE000024A11680843106070470000786E010083
:106FF0000B48016803221204114301600168072253
:10700000120691433C00F82500000122520689181F
:1070100001600168120C11430160016852081143BC
:1070200001607047000080000700FEB51C4E051C83
:10703000B08AF26812D00124002909D1116D02AA88
:1070400001ABFEF7F8FE3C00342600000298002851
:1070500001D000240BE001AA02A9281CFEF770FF52
:1070600005E0116D02AA002401ABFEF701FF0E49F5
:10707000081C2030827900AB1A70C07958703068D3
:10708000002802D1029830603C007026000002E027
:1070900002987268D060019800AB70601888C8844C
:1070A000F068C06CF060201CFEBD247E0100001062
:1070B0000700F8B5041C54271D4E00203060706096
:1070C00067433804151C000CB1823C00AC2600005C
:1070D000FFF796F8082130610026174A14E0031CD8
:1070E000243342610361C661018308330360B12325
:1070F0004360031C6433C3600C230381031C5433BB
:107100004C3028C0013C181C002CE8D13C00E8267B
:107110000000094E07223069D243C1195050021CA9
:10712000103280398A63F060B06000210020FFF7E0
:1071300088FF3069F060B060F8BD247E01009100E6
:1071400005000148406A70470000E87D01003C00EE
:10715000242700000148008870470000FC6B0100F4
:10716000064980B508880130088005490820086074
:1071700004498869886100F021F880BDFC6B01003A
:107180000010070000300700034A0120121D06CA44
:107190003C0060270000914200D100207047E87D4C
:1071A0000100064800B5C07C002803D1FFF7EFFFBF
:1071B000002801D0012000BD002000BD0000A080FB
:1071C000070010B5041C800702D506F03EFD03E061
:1071D000E0073C009C27000001D506F0E3FD6007B6
:1071E00001D5FEF7ABFD10BD024A011C106811600D
:1071F00070470000E87D010038B5204D2C1C20347C
:10720000A07900AB1870E0795870FEF727FA00AB50
:107210001888E8843C00D82700001A4881780822A2
:1072200091438170817811438170174841688022B1
:1072300091434160016811430160002001306428DE
:10724000FCD3A0790F4D00AB1870E079104C58704A
:10725000201C103000F03C0014280000DFFB002050
:10726000C043A061FFF79CFF002809D00A490869C4
:107270000130086100203C318968486306F0EEFC6B
:1072800000AB1888E88438BD001007000000070034
:10729000F4000700003007003C0050280000E87DA3
:1072A00001000A4880B5006A002801D0FEF7C1F944
:1072B000074807493C308068103048610120086168
:1072C0000549086880229043086080BD0000E87D81
:1072D000010000300700F40007003C008C2800008B
:1072E00080B50CF0CBFE06F0BFFC80BD0149C86242
:1072F00070470000E87D0100024A916A08439062ED
:1073000070470000E87D01001823064958434018E3
:107310000021027903681A70013108303C00C82846
:1073200000000329F8D370470000285201000349E8
:10733000002800D0011C024881627047000085755A
:107340000000046C0100F8B5FFF733FF284F002858
:1073500004D0FFF7C8FF386A01303862F86A3C0091
:1073600004290000002802D0018904390181386B0A
:107370000025002808D00B203D6310F0E5FA1E49D7
:10738000086821229043086038783C211B4A414319
:107390008C18FF22796A3A7000290CD0B969013142
:1073A0003C0040290000B9617D62BD68002D04D019
:1073B000636B7A6B0021FDF747FDF8BD042803D30A
:1073C00001218420FEF7A1FC3869261C01303861B8
:1073D00020363078022803D00C218420FEF795FC5B
:1073E00035703C007C290000A1690029E8D0636B5E
:1073F000303420780C1C00217A6BFDF727FDDFE785
:10740000046C0100F400070018DB010010B50B4C00
:10741000606A00280ED00A4800F012FB002060626B
:10742000A468002C3C00B829000005D07E23DB4373
:1074300000220121FDF70DFD10BDE0690130E06182
:1074400010BD046C010000300700094841683F226C
:10745000120491430D2212048918416041680122EF
:107460005202914341603C00F429000003488178B6
:1074700081708178817070478000070000000700EC
:10748000F0B50125082400200E4A0F4900263C23B0
:107490004343D1529B185D719B605E611C82C02783
:1074A000DF602027FE549E613C00302A0000302718
:1074B000FE54074F3F182037013005289F63E9D35A
:1074C0000548FF3201329062F0BD18DB0100BEBA00
:1074D000000030800700066C0100014948607047D9
:1074E0000000046C01000549085C3C006C2A0000A7
:1074F000054949684018C006C00E0449203048724A
:1075000070470000A0570100046C010000800700D4
:1075100080B515218420FEF707FC80BDF8B54348EF
:1075200084680334424D04E0201C10F03C00A82A7B
:107530000000B9F8002871D12869C007F7D53E4886
:1075400028603E4A141C2034207900903C233C499A
:10755000584345182879FFF7CCFF281C3A490830D2
:1075600048600126081C0660686A00280DD03C00AF
:10757000E42A0000A96A926A354B9F68D71B1A68F3
:10758000511879188A425A6800D800E0013206C0C2
:10759000E86AFEF787FF2D49E86A4860301C0E60F4
:1075A00066791FE02B484661047F2949201C503929
:1075B0003C00202B0000896AFDF75AFC00988442A9
:1075C00010D03C202249604340188769002F09D021
:1075D0000021203001707E23DB4302210022201C89
:1075E000FDF74CFC0120A0408643002EDDD1E96967
:1075F00000293C005C2B000003D03020405DFDF7EB
:107600003AFC164C503C606A002803D00A218420C2
:10761000FEF796FB20352878012803D00B21842023
:10762000FEF78EFB02202870E068013000E007E0E2
:10763000E06000983C00982B00002070009860707B
:107640000A4800686063F8BD0000000107000040C0
:107650000700010000013080070018DB0100003046
:107660000700546C010000A00700786E01003C2266
:107670003C234A4309493C00D42B0000B0B55418C0
:1076800058434518211C3822281CFDF7E5FCA06B47
:107690000078A96B0870002020342070B0BD000075
:1076A00018DB01003C230749584310B54418203427
:1076B0002078022803D10D213C00102C00008420EA
:1076C000FEF747FB0020207010BD18DB0100FFB55E
:1076D0003C2048431A4981B04418261C2036307893
:1076E000151C0F9F022803D104218420FEF731FBD3
:1076F0000120307025710B9930223C004C2C000089
:1077000061800A99E1620D99A1610C99E1610E997C
:107710006162A762019911557E21C9436163049991
:10772000002900D10020061C281C08F08BF8002836
:1077300001D0022000E00020A16B30433C00882CE7
:107740000000087005B0F0BD000018DB010080B536
:1077500014218420FEF703FB80BD01484078704768
:107760000000046C010002480069C007C00F7047A8
:10777000000000400700011C3C23044A59433C0020
:10778000C42C00008918203109780120002900D07C
:107790000020704718DB01000848406A00280AD121
:1077A000074A002120239B5C022B04D001313C328C
:1077B0000529F7D37047012070470000046C0100D1
:1077C0003C00002D000018DB0100F8B50E1C041C65
:1077D000171CFEF782FE201C114C60600120206007
:1077E000104D686901306861686A002803D007217C
:1077F0008420FEF7BAFAA068400703D5062184204A
:10780000FEF73C003C2D0000B3FA08480069002850
:1078100003DAAA218420FEF7ABFA02206862AE6088
:107820002F70F8BD00300700046C01000040070015
:10783000044A518010710348034908304860012010
:10784000086070473C00782D00003C6C010000305F
:1078500007000021002305E002894360C068511839
:107860000904090C0028F7D104310804000C704702
:107870000000024A516B0843506370470000046CDB
:10788000010038B50A4C3C00B42D0000221C203207
:10789000957900AB1D70D2795A7003684068064A2A
:1078A0005065054813655030816000AB1888E0844E
:1078B00038BD000000100700046C010098B50D4CA5
:1078C000201C2030817900AB3C00F02D00001970A5
:1078D000C07958700A4800F0ECF809490020486265
:1078E000FFF769FF002803D012218420FEF749FA30
:1078F00000AB1888E08498BD00000010070000303D
:107900000700046C01000348017A3C002C2E0000A3
:10791000FE2291430A310172704700000080070087
:1079200090B50E4C85B0A078022814D10320A07029
:107930000B4900200022049202900391E188012269
:1079400001920091617820782269E3683C00682EFA
:10795000000008F094FD044809F07FF905B090BDDF
:107960000000B4790100ADB6000071B60000B0B5FA
:107970000C4DAC790C490978002903D001290ED0AF
:10798000022908D1C288002A09D0012381683C005D
:10799000A42E000002200FF0C1F803E0022186208F
:1079A000FEF7F8F9AC71B0BD20100700A079010016
:1079B00080B5026807494A600379CA78CB700079BC
:1079C000904206D003481430008907F027FE06F0E5
:1079D0003C00E02E0000ABFA80BD8466010070B56B
:1079E000164C154DA0780026983D012803D1286932
:1079F00008F0FBFCA6706068012803D0002128690C
:107A000000F0FFFB0E4829690CF031FA01200CF060
:107A1000E4F83C001C2F0000E078012802D001208F
:107A2000607000E06670064814304168012906D194
:107A30000660416F002902D00020FDF74CFA70BDAE
:107A4000846601003463010030B500220023012563
:107A50002C1C94403C00582F0000044001D0CA5414
:107A6000013301320E2AF6DB181C30BD0000FFB5D1
:107A700001270026051C022081B00090002D18D09F
:107A80002878FF2815D0002410E0281980780A995A
:107A9000002901D001063C00942F000008D507F012
:107AA000E9FE0E2803D0012181400E4300E00027AB
:107AB00001346878A042EBDC0098029D0138009008
:107AC000DFD10398311C814302D003980640002780
:107AD0000498066005B0381C3C00D02F0000F0BDB3
:107AE000000002210160642101E0013902D0026836
:107AF0009207FAD40120002900D10020704710B568
:107B00000020C443054B022201015A50C9188C6061
:107B100001300828F8DB10BD00003C000C300000EC
:107B200000300700F0B5051C6035C76A041C287BCF
:107B3000002F8BB015D0082815D202A31B5C5B0068
:107B40009F4400000704040709090C0C01260021CA
:107B500009E0002606E00226022104E03C0048304D
:107B600000000326032101E0042601218C22125982
:107B700007912649069004910020039005970892EA
:107B8000E0692269211C7031019121490090700047
:107B90004018603002920388591C01801E483C0046
:107BA000843000000288A1680AA809F0E1FF606043
:107BB000E87AA16AC9070007000EC90D0843616A87
:107BC0002269C907890D01430120002A00D1002044
:107BD00080030843216AC9030843082108430A991E
:107BE0003C00C03000000880201CFEF798FE206991
:107BF000002804D1201C0AF082F90BB0F0BD807976
:107C0000062801D9FEF70FF920690649807980001E
